{
  "_format": "hh3-artifact-1",
  "contractName": "Voting",
  "sourceName": "contracts/Voting.sol",
  "abi": [
    {
      "inputs": [],
      "stateMutability": "nonpayable",
      "type": "constructor"
    },
    {
      "inputs": [
        {
          "internalType": "address",
          "name": "owner",
          "type": "address"
        }
      ],
      "name": "OwnableInvalidOwner",
      "type": "error"
    },
    {
      "inputs": [
        {
          "internalType": "address",
          "name": "account",
          "type": "address"
        }
      ],
      "name": "OwnableUnauthorizedAccount",
      "type": "error"
    },
    {
      "anonymous": false,
      "inputs": [
        {
          "indexed": true,
          "internalType": "address",
          "name": "previousOwner",
          "type": "address"
        },
        {
          "indexed": true,
          "internalType": "address",
          "name": "newOwner",
          "type": "address"
        }
      ],
      "name": "OwnershipTransferred",
      "type": "event"
    },
    {
      "anonymous": false,
      "inputs": [
        {
          "indexed": false,
          "internalType": "uint256",
          "name": "proposalId",
          "type": "uint256"
        }
      ],
      "name": "ProposalRegistered",
      "type": "event"
    },
    {
      "anonymous": false,
      "inputs": [
        {
          "indexed": false,
          "internalType": "address",
          "name": "voter",
          "type": "address"
        },
        {
          "indexed": false,
          "internalType": "uint256",
          "name": "proposalId",
          "type": "uint256"
        }
      ],
      "name": "Voted",
      "type": "event"
    },
    {
      "anonymous": false,
      "inputs": [
        {
          "indexed": false,
          "internalType": "address",
          "name": "voterAddress",
          "type": "address"
        }
      ],
      "name": "VoterRegistered",
      "type": "event"
    },
    {
      "anonymous": false,
      "inputs": [
        {
          "indexed": false,
          "internalType": "enum Voting.WorkflowStatus",
          "name": "previousStatus",
          "type": "uint8"
        },
        {
          "indexed": false,
          "internalType": "enum Voting.WorkflowStatus",
          "name": "newStatus",
          "type": "uint8"
        }
      ],
      "name": "WorkflowStatusChange",
      "type": "event"
    },
    {
      "inputs": [
        {
          "internalType": "string",
          "name": "_desc",
          "type": "string"
        }
      ],
      "name": "addProposal",
      "outputs": [],
      "stateMutability": "nonpayable",
      "type": "function"
    },
    {
      "inputs": [
        {
          "internalType": "address",
          "name": "_addr",
          "type": "address"
        }
      ],
      "name": "addVoter",
      "outputs": [],
      "stateMutability": "nonpayable",
      "type": "function"
    },
    {
      "inputs": [],
      "name": "endProposalsRegistering",
      "outputs": [],
      "stateMutability": "nonpayable",
      "type": "function"
    },
    {
      "inputs": [],
      "name": "endVotingSession",
      "outputs": [],
      "stateMutability": "nonpayable",
      "type": "function"
    },
    {
      "inputs": [
        {
          "internalType": "uint256",
          "name": "_id",
          "type": "uint256"
        }
      ],
      "name": "getOneProposal",
      "outputs": [
        {
          "components": [
            {
              "internalType": "string",
              "name": "description",
              "type": "string"
            },
            {
              "internalType": "uint256",
              "name": "voteCount",
              "type": "uint256"
            }
          ],
          "internalType": "struct Voting.Proposal",
          "name": "",
          "type": "tuple"
        }
      ],
      "stateMutability": "view",
      "type": "function"
    },
    {
      "inputs": [
        {
          "internalType": "address",
          "name": "_addr",
          "type": "address"
        }
      ],
      "name": "getVoter",
      "outputs": [
        {
          "components": [
            {
              "internalType": "bool",
              "name": "isRegistered",
              "type": "bool"
            },
            {
              "internalType": "bool",
              "name": "hasVoted",
              "type": "bool"
            },
            {
              "internalType": "uint256",
              "name": "votedProposalId",
              "type": "uint256"
            }
          ],
          "internalType": "struct Voting.Voter",
          "name": "",
          "type": "tuple"
        }
      ],
      "stateMutability": "view",
      "type": "function"
    },
    {
      "inputs": [],
      "name": "owner",
      "outputs": [
        {
          "internalType": "address",
          "name": "",
          "type": "address"
        }
      ],
      "stateMutability": "view",
      "type": "function"
    },
    {
      "inputs": [],
      "name": "renounceOwnership",
      "outputs": [],
      "stateMutability": "nonpayable",
      "type": "function"
    },
    {
      "inputs": [
        {
          "internalType": "uint256",
          "name": "_id",
          "type": "uint256"
        }
      ],
      "name": "setVote",
      "outputs": [],
      "stateMutability": "nonpayable",
      "type": "function"
    },
    {
      "inputs": [],
      "name": "startProposalsRegistering",
      "outputs": [],
      "stateMutability": "nonpayable",
      "type": "function"
    },
    {
      "inputs": [],
      "name": "startVotingSession",
      "outputs": [],
      "stateMutability": "nonpayable",
      "type": "function"
    },
    {
      "inputs": [],
      "name": "tallyVotes",
      "outputs": [],
      "stateMutability": "nonpayable",
      "type": "function"
    },
    {
      "inputs": [
        {
          "internalType": "address",
          "name": "newOwner",
          "type": "address"
        }
      ],
      "name": "transferOwnership",
      "outputs": [],
      "stateMutability": "nonpayable",
      "type": "function"
    },
    {
      "inputs": [],
      "name": "winningProposalID",
      "outputs": [
        {
          "internalType": "uint256",
          "name": "",
          "type": "uint256"
        }
      ],
      "stateMutability": "view",
      "type": "function"
    },
    {
      "inputs": [],
      "name": "workflowStatus",
      "outputs": [
        {
          "internalType": "enum Voting.WorkflowStatus",
          "name": "",
          "type": "uint8"
        }
      ],
      "stateMutability": "view",
      "type": "function"
    }
  ],
  "bytecode": "0x6080604052348015600e575f5ffd5b503380603357604051631e4fbdf760e01b81525f600482015260240160405180910390fd5b603a81603f565b50608e565b5f80546001600160a01b038381166001600160a01b0319831681178455604051919092169283917f8be0079c531659141344cd1fd0a4f28419497f9722a3daafe3b4186f6b6457e09190a35050565b6111788061009b5f395ff3fe608060405234801561000f575f5ffd5b50600436106100f0575f3560e01c8063a7bfab1611610093578063d4f50f9811610063578063d4f50f98146101b4578063ee74c678146101ed578063f2fde38b146101f5578063f4ab9adf14610208575f5ffd5b8063a7bfab1614610185578063bdc014311461018d578063c7038a4e146101a4578063c88af42f146101ac575f5ffd5b8063715018a6116100ce578063715018a6146101245780638da5cb5b1461012c578063a1edffa21461014b578063a2788cce14610165575f5ffd5b8063230796ae146100f45780632fdae3c514610109578063378a21781461011c575b5f5ffd5b610107610102366004610d83565b61021b565b005b610107610117366004610d9a565b610418565b61010761063d565b6101076106f7565b5f546040516001600160a01b0390911681526020015b60405180910390f35b6002546101589060ff1681565b6040516101429190610e3c565b610178610173366004610d83565b61070a565b6040516101429190610e50565b610107610816565b61019660015481565b604051908152602001610142565b610107610883565b6101076109b4565b6101c76101c2366004610e99565b610a5e565b604080518251151581526020808401511515908201529181015190820152606001610142565b610107610af1565b610107610203366004610e99565b610b9e565b610107610216366004610e99565b610bdb565b335f9081526004602052604090205460ff166102525760405162461bcd60e51b815260040161024990610ec6565b60405180910390fd5b600360025460ff16600581111561026b5761026b610e08565b146102885760405162461bcd60e51b815260040161024990610ef2565b335f90815260046020526040902054610100900460ff1615156001036102e95760405162461bcd60e51b8152602060048201526016602482015275165bdd481a185d9948185b1c9958591e481d9bdd195960521b6044820152606401610249565b600354811061032f5760405162461bcd60e51b8152602060048201526012602482015271141c9bdc1bdcd85b081b9bdd08199bdd5b9960721b6044820152606401610249565b335f90815260046020526040902060018101829055805461ff001916610100179055600380548290811061036557610365610f33565b5f9182526020822060016002909202010180549161038283610f5b565b919050555060036001548154811061039c5761039c610f33565b905f5260205f20906002020160010154600382815481106103bf576103bf610f33565b905f5260205f2090600202016001015411156103db5760018190555b60408051338152602081018390527f4d99b957a2bc29a30ebd96a7be8e68fe50a3c701db28a91436490b7d53870ca491015b60405180910390a150565b335f9081526004602052604090205460ff166104465760405162461bcd60e51b815260040161024990610ec6565b600160025460ff16600581111561045f5761045f610e08565b146104ac5760405162461bcd60e51b815260206004820152601d60248201527f50726f706f73616c7320617265206e6f7420616c6c6f776564207965740000006044820152606401610249565b6040516020016104c69060208082525f9082015260400190565b6040516020818303038152906040528051906020012082826040516020016104ef929190610f73565b604051602081830303815290604052805190602001200361055e5760405162461bcd60e51b815260206004820152602360248201527f566f7573206e6520706f7576657a20706173206e65207269656e2070726f706f60448201526239b2b960e91b6064820152608401610249565b60408051808201909152606081525f602082015282828080601f0160208091040260200160405190810160405280939291908181526020018383808284375f920182905250938552505060038054600181018255925250815182916002027fc2575a0e9e593c00f959f8c92f12db2869c3395a3b0502d05e2516446f71f85b019081906105eb9082611039565b50602091909101516001918201556003547f92e393e9b54e2f801d3ea4beb0c5e71a21cc34a5d34b77d0fb8a3aa1650dc18f91610627916110f4565b60405190815260200160405180910390a1505050565b610645610d08565b600460025460ff16600581111561065e5761065e610e08565b146106be5760405162461bcd60e51b815260206004820152602a60248201527f43757272656e7420737461747573206973206e6f7420766f74696e67207365736044820152691cda5bdb88195b99195960b21b6064820152608401610249565b6002805460ff191660059081179091556040515f5160206111235f395f51905f52916106ed9160049190611107565b60405180910390a1565b6106ff610d08565b6107085f610d34565b565b60408051808201909152606081525f6020820152335f9081526004602052604090205460ff1661074c5760405162461bcd60e51b815260040161024990610ec6565b6003828154811061075f5761075f610f33565b905f5260205f2090600202016040518060400160405290815f8201805461078590610fb5565b80601f01602080910402602001604051908101604052809291908181526020018280546107b190610fb5565b80156107fc5780601f106107d3576101008083540402835291602001916107fc565b820191905f5260205f20905b8154815290600101906020018083116107df57829003601f168201915b505050505081526020016001820154815250509050919050565b61081e610d08565b600360025460ff16600581111561083757610837610e08565b146108545760405162461bcd60e51b815260040161024990610ef2565b6002805460ff191660049081179091556040515f5160206111235f395f51905f52916106ed9160039190611107565b61088b610d08565b5f60025460ff1660058111156108a3576108a3610e08565b146109025760405162461bcd60e51b815260206004820152602960248201527f5265676973746572696e672070726f706f73616c732063616e742062652073746044820152686172746564206e6f7760b81b6064820152608401610249565b6002805460ff191660019081178255604080518082018252606081525f60208083018290528351808501909452600784526647454e4553495360c81b908401529181526003805493840181559091528051909283927fc2575a0e9e593c00f959f8c92f12db2869c3395a3b0502d05e2516446f71f85b9102019081906109889082611039565b506020820151816001015550505f5160206111235f395f51905f525f600160405161040d929190611107565b6109bc610d08565b600160025460ff1660058111156109d5576109d5610e08565b14610a335760405162461bcd60e51b815260206004820152602860248201527f5265676973746572696e672070726f706f73616c7320686176656e74207374616044820152671c9d1959081e595d60c21b6064820152608401610249565b6002805460ff1916811781556040515f5160206111235f395f51905f52916106ed9160019190611107565b604080516060810182525f808252602080830182905282840182905233825260049052919091205460ff16610aa55760405162461bcd60e51b815260040161024990610ec6565b506001600160a01b03165f908152600460209081526040918290208251606081018452815460ff8082161515835261010090910416151592810192909252600101549181019190915290565b610af9610d08565b6002805460ff166005811115610b1157610b11610e08565b14610b725760405162461bcd60e51b815260206004820152602b60248201527f5265676973746572696e672070726f706f73616c73207068617365206973206e60448201526a1bdd08199a5b9a5cda195960aa1b6064820152608401610249565b6002805460ff1916600390811782556040515f5160206111235f395f51905f52926106ed929091611107565b610ba6610d08565b6001600160a01b038116610bcf57604051631e4fbdf760e01b81525f6004820152602401610249565b610bd881610d34565b50565b610be3610d08565b5f60025460ff166005811115610bfb57610bfb610e08565b14610c545760405162461bcd60e51b815260206004820152602360248201527f566f7465727320726567697374726174696f6e206973206e6f74206f70656e206044820152621e595d60ea1b6064820152608401610249565b6001600160a01b0381165f9081526004602052604090205460ff161515600103610cb55760405162461bcd60e51b8152602060048201526012602482015271105b1c9958591e481c9959da5cdd195c995960721b6044820152606401610249565b6001600160a01b0381165f81815260046020908152604091829020805460ff1916600117905590519182527fb6be2187d059cc2a55fe29e0e503b566e1e0f8c8780096e185429350acffd3dd910161040d565b5f546001600160a01b031633146107085760405163118cdaa760e01b8152336004820152602401610249565b5f80546001600160a01b038381166001600160a01b0319831681178455604051919092169283917f8be0079c531659141344cd1fd0a4f28419497f9722a3daafe3b4186f6b6457e09190a35050565b5f60208284031215610d93575f5ffd5b5035919050565b5f5f60208385031215610dab575f5ffd5b823567ffffffffffffffff811115610dc1575f5ffd5b8301601f81018513610dd1575f5ffd5b803567ffffffffffffffff811115610de7575f5ffd5b856020828401011115610df8575f5ffd5b6020919091019590945092505050565b634e487b7160e01b5f52602160045260245ffd5b60068110610e3857634e487b7160e01b5f52602160045260245ffd5b9052565b60208101610e4a8284610e1c565b92915050565b602081525f82516040602084015280518060608501528060208301608086015e5f60808286010152602085015160408501526080601f19601f8301168501019250505092915050565b5f60208284031215610ea9575f5ffd5b81356001600160a01b0381168114610ebf575f5ffd5b9392505050565b6020808252601290820152712cb7ba93b932903737ba1030903b37ba32b960711b604082015260600190565b60208082526021908201527f566f74696e672073657373696f6e20686176656e7420737461727465642079656040820152601d60fa1b606082015260800190565b634e487b7160e01b5f52603260045260245ffd5b634e487b7160e01b5f52601160045260245ffd5b5f60018201610f6c57610f6c610f47565b5060010190565b60208152816020820152818360408301375f818301604090810191909152601f909201601f19160101919050565b634e487b7160e01b5f52604160045260245ffd5b600181811c90821680610fc957607f821691505b602082108103610fe757634e487b7160e01b5f52602260045260245ffd5b50919050565b601f82111561103457805f5260205f20601f840160051c810160208510156110125750805b601f840160051c820191505b81811015611031575f815560010161101e565b50505b505050565b815167ffffffffffffffff81111561105357611053610fa1565b611067816110618454610fb5565b84610fed565b6020601f821160018114611099575f83156110825750848201515b5f19600385901b1c1916600184901b178455611031565b5f84815260208120601f198516915b828110156110c857878501518255602094850194600190920191016110a8565b50848210156110e557868401515f19600387901b60f8161c191681555b50505050600190811b01905550565b81810381811115610e4a57610e4a610f47565b604081016111158285610e1c565b610ebf6020830184610e1c56fe0a97a4ee45751e2abf3e4fc8946939630b11b371ea8ae39ccdc3056e98f5cc3fa26469706673582212203d6ca65ce418006e50fc6f57d15c4063bdc91ddacae8540f22d4d6400137b1a864736f6c634300081c0033",
  "linkReferences": {},
  "deployedLinkReferences": {},
  "immutableReferences": {},
  "inputSourceName": "project/contracts/Voting.sol",
  "buildInfoId": "solc-0_8_28-0a93d02cd56923a40e32122027c4c9dec6a9c595"
}